:020000040000FA
:10000000600400206D020000710200007302000015
:100010007502000077020000790200000000000075
:100020000000000000000000000000007B02000053
:100030007D020000000000007F020000810200003D
:10004000830200008302000083020000830200009C
:10005000830200008302000083020000830200008C
:10006000830200008302000083020000830200007C
:10007000830200008302000083020000830200006C
:10008000830200008302000083020000830200005C
:10009000830200008302000083020000830200004C
:1000A000830200008302000083020000830200003C
:1000B000830200008302000083020000830200002C
:1000C000830200008302000083020000830200001C
:1000D000830200008302000083020000830200000C
:1000E00083020000830200008302000083020000FC
:1000F00083020000830200008302000083020000EC
:1001000083020000830200008302000083020000DB
:1001100083020000830200008302000083020000CB
:1001200083020000830200008302000083020000BB
:1001300083020000830200008302000083020000AB
:1001400000000000000000000000000000000000AF
:10015000830200008302000083020000830200008B
:10016000000000000000000000000000000000008F
:10017000000000000000000000000000000000007F
:10018000000000000000000000000000000000006F
:10019000000000000000000000000000000000005F
:1001A000000000000000000000000000000000004F
:1001B000830200008302000083020000830200002B
:1001C000830200008302000083020000830200001B
:1001D000830200008302000083020000830200000B
:1001E00083020000830200008302000083020000FB
:1001F00083020000830200008302000083020000EB
:10020000830200008302000083020000000000005F
:1002100083020000830200008302000083020000CA
:1002200083020000830200008302000083020000BA
:1002300083020000830200008302000083020000AA
:10024000830200008302000083020000830200009A
:10025000830200008302000083020000830200008A
:1002600083020000830200008302000000F00AB84D
:10027000FEE7FEE7FEE7FEE7FEE7FEE7FEE7FEE756
:10028000FEE7FEE700F002F800F042F814A696E858
:10029000000CB244B344DA4501D100F039F8BAE8B1
:1002A0000F000FA696E83000A5EB040504EB060747
:1002B000AAEB0704A7F101074FEA15154FEA34141A
:1002C000A4F10104AC4201D300F022F813F0010FB5
:1002D00018BFFB1A43F0010300F001F8DBE71847F1
:1002E00020040000300400007047000000230024B8
:1002F00000250026103A28BF78C1FBD8520728BF36
:1003000030C148BF0B6070471FB51FBD10B510BD91
:1003100000F029F81146FFF7F7FF00F0FBF800F0B6
:1003200047F803B4FFF7F2FF03BC00F04FF80000FA
:1003300072B6704762B67047EFF3108072B67047BE
:1003400080F31088704730BF704702480249014A65
:10035000024B704760000020600400206000002015
:10036000704770477047754600F02CF8AE460500A0
:100370006946534620F00700854618B020B5FFF7C0
:10038000E4FFBDE820404FF000064FF000074FF0BB
:1003900000084FF0000BAC46ACE8C009ACE8C0095F
:1003A000ACE8C009ACE8C00921F007018D467047F0
:1003B00010B50446AFF300802046BDE81040FFF7BB
:1003C000B0BF00000048704700000020014918201D
:1003D000ABBEFEE7260002007047000083B08DF838
:1003E0000B0000200190FFE701989DF80B10884258
:1003F00012D2FFE700200090FFE7009800097C2858
:1004000005D8FFE7FFE7009801300090F5E7FFE728
:10041000019801300190E7E703B070474EF20861A0
:10042000C4F20F01086840F002000860FFE74EF2D6
:100430000860C4F20F00006800F00200022801D03A
:10044000FFE7F4E745F20041C4F20001086840F01C
:100450000700086045F21C51C4F20001086840F032
:100460000700086045F22041C4F20001086820F04E
:10047000FF00086045F22851C4F20001086820F02E
:100480000700086045F22C51C4F20001086840F6EC
:10049000FF729043086070474EF20861C4F20F018A
:1004A000086840F010000860FFE74EF20860C4F2F0
:1004B0000F00006800F01000102801D0FFE7F4E7FB
:1004C00044F20041C4F20201086820F00300086011
:1004D00044F21C51C4F20201086840F003000860B5
:1004E00044F22041C4F20201086820F0FF000860D5
:1004F00044F22851C4F20201086820F003000860A9
:1005000044F22C51C4F20201086820F0FF00086098
:100510007047000080B582B000200190FFF77EFF99
:10052000FFF7BAFF45F21C01C4F200010120086088
:10053000FFE744F20C00C4F20200006801281AD15F
:10054000FFE745F21C00C4F200000068012812D148
:10055000FFE745F21C01C4F2000108684000086092
:10056000FFE744F20C00C4F202000068012801D148
:10057000FFE7F6E745E044F20C00C4F20200006831
:1005800001281AD1FFE745F21C00C4F20000006800
:10059000022812D1FFE745F21C01C4F200010868ED
:1005A00040000860FFE744F20C00C4F2020000685B
:1005B000012801D1FFE7F6E722E044F20C00C4F283
:1005C0000200006801281AD1FFE745F21C00C4F2BE
:1005D00000000068042812D1FFE745F21C01C4F2B4
:1005E0000001086880080860FFE744F20C00C4F2CC
:1005F00002000068012801D1FFE7F6E7FFE7FFE707
:10060000FFE7FFE744F20C00C4F202000068022892
:1006100075D1FFE745F21C00C4F200000068012814
:100620001ED1FFE7FFE744F20C00C4F202000068AD
:1006300002280CD1FFE745F21C01C4F20001086852
:1006400080F001000860FF20FFF7C8FEEBE745F2ED
:100650001C01C4F20001086840F0010008604DE090
:1006600045F21C00C4F20000006802281ED1FFE71A
:10067000FFE744F20C00C4F20200006802280CD12B
:10068000FFE745F21C01C4F20001086880F0020097
:100690000860FF20FFF7A2FEEBE745F21C01C4F261
:1006A0000001086840F00200086026E045F21C00E6
:1006B000C4F20000006804281ED1FFE7FFE744F2FF
:1006C0000C00C4F20200006802280CD1FFE745F2DA
:1006D0001C01C4F20001086880F004000860FF20DB
:1006E000FFF77CFEEBE745F21C01C4F2000108684D
:1006F00040F004000860FFE7FFE7FFE782E718E744
:10070000100700000000002060040000EC02000060
:040000050000026D88
:00000001FF
