:020000040000FA
:10000000680400206D02000071020000730200000D
:100010007502000077020000790200000000000075
:100020000000000000000000000000007B02000053
:100030007D020000000000007F020000E9040000D3
:10004000830200008302000083020000830200009C
:10005000830200008302000083020000830200008C
:10006000830200008302000083020000830200007C
:10007000830200008302000083020000830200006C
:10008000830200008302000083020000830200005C
:10009000830200008302000083020000830200004C
:1000A000830200008302000083020000830200003C
:1000B000830200008302000083020000830200002C
:1000C000830200008302000083020000830200001C
:1000D000830200008302000083020000830200000C
:1000E00083020000830200008302000083020000FC
:1000F00083020000830200008302000083020000EC
:1001000083020000830200008302000083020000DB
:1001100083020000830200008302000083020000CB
:1001200083020000830200008302000083020000BB
:1001300083020000830200008302000083020000AB
:1001400000000000000000000000000000000000AF
:10015000830200008302000083020000830200008B
:10016000000000000000000000000000000000008F
:10017000000000000000000000000000000000007F
:10018000000000000000000000000000000000006F
:10019000000000000000000000000000000000005F
:1001A000000000000000000000000000000000004F
:1001B000830200008302000083020000830200002B
:1001C000830200008302000083020000830200001B
:1001D000830200008302000083020000830200000B
:1001E00083020000830200008302000083020000FB
:1001F00083020000830200008302000083020000EB
:10020000830200008302000083020000000000005F
:1002100083020000830200008302000083020000CA
:1002200083020000830200008302000083020000BA
:1002300083020000830200008302000083020000AA
:10024000830200008302000083020000830200009A
:10025000830200008302000083020000830200008A
:1002600083020000830200008302000000F00AB84D
:10027000FEE7FEE7FEE7FEE7FEE7FEE7FEE7FEE756
:10028000FEE7FEE700F002F800F042F814A696E858
:10029000000CB244B344DA4501D100F039F8BAE8B1
:1002A0000F000FA696E83000A5EB040504EB060747
:1002B000AAEB0704A7F101074FEA15154FEA34141A
:1002C000A4F10104AC4201D300F022F813F0010FB5
:1002D00018BFFB1A43F0010300F001F8DBE71847F1
:1002E0003C0300004C030000704700000023002482
:1002F00000250026103A28BF78C1FBD8520728BF36
:1003000030C148BF0B6070471FB51FBD10B510BD91
:1003100000F029F81146FFF7F7FF00F039F900F077
:1003200047F803B4FFF7F2FF03BC00F04FF80000FA
:1003300072B6704762B67047EFF3108072B67047BE
:1003400080F31088704730BF704702480249014A65
:10035000024B7047680000206804002068000020FD
:10036000704770477047754600F02CF8AE460500A0
:100370006946534620F00700854618B020B5FFF7C0
:10038000E4FFBDE820404FF000064FF000074FF0BB
:1003900000084FF0000BAC46ACE8C009ACE8C0095F
:1003A000ACE8C009ACE8C00921F007018D467047F0
:1003B00010B50446AFF300802046BDE81040FFF7BB
:1003C000B0BF00000048704700000020014918201D
:1003D000ABBEFEE7260002007047000082B08DF839
:1003E00007009DF8070046F27931C0F21801484332
:1003F0000090FFE7009828B1FFE7FFE70098013879
:100400000090F7E702B0704781B00090009940F289
:100410006000C2F20000016002684EF20021C0F2EA
:100420000401891A40F26402C2F20002116045F22E
:100430000012C4F20002116841F04001116000682E
:100440004EF21401CEF2000108604EF21801CEF215
:100450000001002008604EF21001CEF20001086891
:1004600040F00100086001B0704700004EF20861E2
:10047000C4F20F01086840F002000860FFE74EF286
:100480000860C4F20F00006800F00200022801D0EA
:10049000FFE7F4E745F22041C4F20001086820F0CC
:1004A0004000086045F22C51C4F20001086820F0B9
:1004B0007060086045F20041C4F20001086840F035
:1004C0004000086045F22851C4F20001086820F09D
:1004D0004000086045F21C51C4F20001086840F079
:1004E00040000860704700004EF21001CEF200019B
:1004F000086820F00100086045F20010C4F2000016
:10050000006860B1FFE740F26400C2F200000068DA
:1005100001384EF21401CEF2000108600BE040F207
:100520006000C2F20000006801384EF21401CEF201
:1005300000010860FFE745F20011C4F200010868FD
:1005400080F0400008604EF21801CEF20001002059
:1005500008604EF21001CEF20001086840F0010080
:10056000086070474EF21001CEF20001086820F0DA
:10057000010008604EF62052CEF2000210680223FD
:1005800063F35F701060086840F006000860704711
:1005900080B584B000200390FFF7CAFEFFF766FF26
:1005A000FFF7E0FFFFF7C6FEFFE745F6C0500190FA
:1005B000FFF72AFF01200290FFF710FF4FF47A5057
:1005C000FFF722FF0298FFF709FF0198FFF71CFFD2
:1005D0000298FFF703FF4FF4FA40FFF715FF029868
:1005E000FFF7FCFE0198FFF70FFF0298FFF7F6FEFA
:1005F0004FF4FA50FFF708FF0298FFF7EFFE01985B
:10060000FFF702FF0298FFF7E9FE49F64040FFF7C7
:10061000FBFE0298FFF7E2FEC7E700002C06000091
:0C0620000000002068040000EC02000054
:040000050000026D88
:00000001FF
