:020000040000FA
:10000000600400206D020000710200007302000015
:100010007502000077020000790200000000000075
:100020000000000000000000000000007B02000053
:100030007D020000000000007F020000810200003D
:10004000830200008302000083020000830200009C
:10005000830200008302000083020000830200008C
:10006000830200008302000083020000830200007C
:10007000830200008302000083020000830200006C
:10008000830200008302000083020000830200005C
:10009000830200008302000083020000830200004C
:1000A000830200008302000083020000830200003C
:1000B000830200008302000083020000830200002C
:1000C000830200008302000083020000830200001C
:1000D000830200008302000083020000830200000C
:1000E00083020000830200008302000083020000FC
:1000F00083020000830200008302000083020000EC
:1001000083020000830200008302000083020000DB
:1001100083020000830200008302000083020000CB
:1001200083020000830200008302000083020000BB
:1001300083020000830200008302000083020000AB
:1001400000000000000000000000000000000000AF
:10015000830200008302000083020000830200008B
:10016000000000000000000000000000000000008F
:10017000000000000000000000000000000000007F
:10018000000000000000000000000000000000006F
:10019000000000000000000000000000000000005F
:1001A000000000000000000000000000000000004F
:1001B000830200008302000083020000830200002B
:1001C000830200008302000083020000830200001B
:1001D000830200008302000083020000830200000B
:1001E00083020000830200008302000083020000FB
:1001F00083020000830200008302000083020000EB
:10020000830200008302000083020000000000005F
:1002100083020000830200008302000083020000CA
:1002200083020000830200008302000083020000BA
:1002300083020000830200008302000083020000AA
:10024000830200008302000083020000830200009A
:10025000830200008302000083020000830200008A
:1002600083020000830200008302000000F00AB84D
:10027000FEE7FEE7FEE7FEE7FEE7FEE7FEE7FEE756
:10028000FEE7FEE700F002F800F042F814A696E858
:10029000000CB244B344DA4501D100F039F8BAE8B1
:1002A0000F000FA696E83000A5EB040504EB060747
:1002B000AAEB0704A7F101074FEA15154FEA34141A
:1002C000A4F10104AC4201D300F022F813F0010FB5
:1002D00018BFFB1A43F0010300F001F8DBE71847F1
:1002E00028010000380100007047000000230024AE
:1002F00000250026103A28BF78C1FBD8520728BF36
:1003000030C148BF0B6070471FB51FBD10B510BD91
:1003100000F029F81146FFF7F7FF00F06DF800F044
:1003200047F803B4FFF7F2FF03BC00F04FF80000FA
:1003300072B6704762B67047EFF3108072B67047BE
:1003400080F31088704730BF704702480249014A65
:10035000024B704760000020600400206000002015
:10036000704770477047754600F02CF8AE460500A0
:100370006946534620F00700854618B020B5FFF7C0
:10038000E4FFBDE820404FF000064FF000074FF0BB
:1003900000084FF0000BAC46ACE8C009ACE8C0095F
:1003A000ACE8C009ACE8C00921F007018D467047F0
:1003B00010B50446AFF300802046BDE81040FFF7BB
:1003C000B0BF00000048704700000020014918201D
:1003D000ABBEFEE726000200704700007047000039
:1003E000704700007047000080B5FFF7F9FFFFF786
:1003F000F9FFFFF7F3FF80BD80B582B000200190C8
:10040000FFF7F2FFFFE7FEE71804000000000020FE
:0804100060040000EC02000092
:040000050000026D88
:00000001FF
