:020000040000FA
:10000000600400206D020000710200007302000015
:100010007502000077020000790200000000000075
:100020000000000000000000000000007B02000053
:100030007D020000000000007F020000810200003D
:10004000830200008302000083020000830200009C
:10005000830200008302000083020000830200008C
:10006000830200008302000083020000830200007C
:10007000830200008302000083020000830200006C
:10008000830200008302000083020000830200005C
:10009000830200008302000083020000830200004C
:1000A000830200008302000083020000830200003C
:1000B000830200008302000083020000830200002C
:1000C000830200008302000083020000830200001C
:1000D000830200008302000083020000830200000C
:1000E00083020000830200008302000083020000FC
:1000F00083020000830200008302000083020000EC
:1001000083020000830200008302000083020000DB
:1001100083020000830200008302000083020000CB
:1001200083020000830200008302000083020000BB
:1001300083020000830200008302000083020000AB
:1001400000000000000000000000000000000000AF
:10015000830200008302000083020000830200008B
:10016000000000000000000000000000000000008F
:10017000000000000000000000000000000000007F
:10018000000000000000000000000000000000006F
:10019000000000000000000000000000000000005F
:1001A000000000000000000000000000000000004F
:1001B000830200008302000083020000830200002B
:1001C000830200008302000083020000830200001B
:1001D000830200008302000083020000830200000B
:1001E00083020000830200008302000083020000FB
:1001F00083020000830200008302000083020000EB
:10020000830200008302000083020000000000005F
:1002100083020000830200008302000083020000CA
:1002200083020000830200008302000083020000BA
:1002300083020000830200008302000083020000AA
:10024000830200008302000083020000830200009A
:10025000830200008302000083020000830200008A
:1002600083020000830200008302000000F00AB84D
:10027000FEE7FEE7FEE7FEE7FEE7FEE7FEE7FEE756
:10028000FEE7FEE700F002F800F042F814A696E858
:10029000000CB244B344DA4501D100F039F8BAE8B1
:1002A0000F000FA696E83000A5EB040504EB060747
:1002B000AAEB0704A7F101074FEA15154FEA34141A
:1002C000A4F10104AC4201D300F022F813F0010FB5
:1002D00018BFFB1A43F0010300F001F8DBE71847F1
:1002E0000C0400001C0400007047000000230024E0
:1002F00000250026103A28BF78C1FBD8520728BF36
:1003000030C148BF0B6070471FB51FBD10B510BD91
:1003100000F029F81146FFF7F7FF00F06FF900F041
:1003200047F803B4FFF7F2FF03BC00F04FF80000FA
:1003300072B6704762B67047EFF3108072B67047BE
:1003400080F31088704730BF704702480249014A65
:10035000024B704760000020600400206000002015
:10036000704770477047754600F02CF8AE460500A0
:100370006946534620F00700854618B020B5FFF7C0
:10038000E4FFBDE820404FF000064FF000074FF0BB
:1003900000084FF0000BAC46ACE8C009ACE8C0095F
:1003A000ACE8C009ACE8C00921F007018D467047F0
:1003B00010B50446AFF300802046BDE81040FFF7BB
:1003C000B0BF00000048704700000020014918201D
:1003D000ABBEFEE726000200704700004EF2081197
:1003E000C4F20F01086840F020000860FFE74EF2F9
:1003F0000810C4F20F00006800F02000202801D08F
:10040000FFE7F4E745F22051C4F20201086844F224
:100410004B32C4F64F421043086045F22451C4F2F7
:100420000201086840F01F00086045F22851C4F23C
:1004300002010868086045F22C51C4F20201086804
:100440004FF6FF729043086045F20041C4F202018A
:10045000086840F00A00086045F22041C4F2020139
:100460000868086045F21C51C4F20201086840F0B7
:100470000A000860704700004EF20811C4F20F0134
:10048000086840F010000860FFE74EF20810C4F260
:100490000F00006800F01000102801D0FFE7F4E71B
:1004A00044F22851C4F202010868086044F22C5159
:1004B000C4F2020108684FF6FF729043086044F2EC
:1004C0000041C4F20201086820F00700086044F20D
:1004D0002041C4F202010868086044F21C51C4F2D1
:1004E0000201086840F00700086070474EF21001F2
:1004F000CEF20001086820F001000860086840F0B2
:1005000004000860704700004EF21401CEF20001B2
:1005100040F6FF00C0F23D0008604EF21801CEF236
:100520000001002008604EF21001CEF200010868C0
:1005300040F001000860FFE74EF21000CEF200002C
:100540000068C003002801D4FFE7F5E74EF2100170
:10055000CEF20001086820F001000860704700003A
:100560004EF20811C4F20F01086840F00200086062
:10057000FFE74EF20810C4F20F00006800F002001E
:10058000022801D0FFE7F4E745F22851C4F2000148
:100590000868086045F22C51C4F2000108684FF663
:1005A000FF729043086045F20041C4F20001086800
:1005B00040F03F00086045F22041C4F200010868A5
:1005C000086045F21C51C4F20001086840F03F0089
:1005D0000860704780B582B0019000200090FFE76E
:1005E00000980199884207D2FFE7FFF78DFFFFE7E8
:1005F000009801300090F3E702B080BD80B586B06E
:10060000002003900590FFF7ABFFFFF7E7FEFFF731
:1006100033FFFFF76BFF03988DF81300FFE79DF89A
:1006200013000B210291484340F28862C0F200029D
:100630000192105C45F2FC03C4F2000318609DF8BF
:10064000130010FB0120407845F22803C4F2020396
:1006500018609DF8130010FB01208078FFF7BAFFA7
:10066000019A029944F21C00C4F2020000688DF85D
:1006700012009DF8130010FB01209DF81210084491
:10068000C0788DF81300CAE72102080001010100BB
:1006900001010122020402040202040402040C0209
:1006A000080203020303030303140204000400040A
:1006B00000040000240808040405050505050524B8
:1006C00000010606060606060606240201070707BD
:1006D0000707070707240001080808080808080892
:1006E000240201000402020000000200FC060000D7
:0C06F0000000002060040000EC0200008C
:040000050000026D88
:00000001FF
