:020000040000FA
:10000000600400206D020000710200007302000015
:100010007502000077020000790200000000000075
:100020000000000000000000000000007B02000053
:100030007D020000000000007F020000810200003D
:10004000830200008302000083020000830200009C
:10005000830200008302000083020000830200008C
:10006000830200008302000083020000830200007C
:10007000830200008302000083020000830200006C
:10008000830200008302000083020000830200005C
:10009000830200008302000083020000830200004C
:1000A000830200008302000083020000830200003C
:1000B000830200008302000083020000830200002C
:1000C000830200008302000083020000830200001C
:1000D000830200008302000083020000830200000C
:1000E00083020000830200008302000083020000FC
:1000F00083020000830200008302000083020000EC
:1001000083020000830200008302000083020000DB
:1001100083020000830200008302000083020000CB
:1001200083020000830200008302000083020000BB
:1001300083020000830200008302000083020000AB
:1001400000000000000000000000000000000000AF
:10015000830200008302000083020000830200008B
:10016000000000000000000000000000000000008F
:10017000000000000000000000000000000000007F
:10018000000000000000000000000000000000006F
:10019000000000000000000000000000000000005F
:1001A000000000000000000000000000000000004F
:1001B000830200008302000083020000830200002B
:1001C000830200008302000083020000830200001B
:1001D000830200008302000083020000830200000B
:1001E00083020000830200008302000083020000FB
:1001F00083020000830200008302000083020000EB
:10020000830200008302000083020000000000005F
:1002100083020000830200008302000083020000CA
:1002200083020000830200008302000083020000BA
:1002300083020000830200008302000083020000AA
:10024000830200008302000083020000830200009A
:10025000830200008302000083020000830200008A
:1002600083020000830200008302000000F00AB84D
:10027000FEE7FEE7FEE7FEE7FEE7FEE7FEE7FEE756
:10028000FEE7FEE700F002F800F042F814A696E858
:10029000000CB244B344DA4501D100F039F8BAE8B1
:1002A0000F000FA696E83000A5EB040504EB060747
:1002B000AAEB0704A7F101074FEA15154FEA34141A
:1002C000A4F10104AC4201D300F022F813F0010FB5
:1002D00018BFFB1A43F0010300F001F8DBE71847F1
:1002E000A4020000B40200007047000000230024B4
:1002F00000250026103A28BF78C1FBD8520728BF36
:1003000030C148BF0B6070471FB51FBD10B510BD91
:1003100000F029F81146FFF7F7FF00F0E7F800F0CA
:1003200047F803B4FFF7F2FF03BC00F04FF80000FA
:1003300072B6704762B67047EFF3108072B67047BE
:1003400080F31088704730BF704702480249014A65
:10035000024B704760000020600400206000002015
:10036000704770477047754600F02CF8AE460500A0
:100370006946534620F00700854618B020B5FFF7C0
:10038000E4FFBDE820404FF000064FF000074FF0BB
:1003900000084FF0000BAC46ACE8C009ACE8C0095F
:1003A000ACE8C009ACE8C00921F007018D467047F0
:1003B00010B50446AFF300802046BDE81040FFF7BB
:1003C000B0BF00000048704700000020014918201D
:1003D000ABBEFEE7260002007047000082B08DF839
:1003E00007009DF8070043F2BC11C0F20C0148431E
:1003F0000090FFE7009820B1FFE7009801380090D7
:10040000F8E702B0704700004EF20811C4F20F0185
:10041000086840F010000860FFE74EF20810C4F2D0
:100420000F00006800F01000102801D0FFE7F4E78B
:1004300044F22851C4F202010868086044F22C51C9
:10044000C4F2020108684FF6FF729043086044F25C
:100450000041C4F20201086840F00F00086044F255
:100460002041C4F202010868086044F21C51C4F241
:100470000201086840F00F00086070474EF2081152
:10048000C4F20F01086840F001000860FFE74EF277
:100490000810C4F20F000068C00708B9FFE7F6E7CC
:1004A00044F22851C4F200010868086044F22C515B
:1004B000C4F2000108684FF6FF729043086044F2EE
:1004C0000041C4F20001086820F00C00086044F20A
:1004D0002041C4F200010868086044F21C51C4F2D3
:1004E0000001086840F00C000860704780B584B0D7
:1004F000002001900390FFF787FFFFF7BFFF0198EF
:100500008DF80B00FFE79DF80B0000EB400140F277
:100510006450C0F20000009010F8111044F23C0248
:10052000C4F2020211609DF80B1001EB410100EBD7
:1005300041004078FFF752FF009844F23001C4F2C6
:100540000001096889088DF80A109DF80B1001EB6D
:10055000410100EB41009DF80A10084480788DF8B5
:100560000B00D0E7010401010000020202020202B6
:100570000C04030203020401040404040C0100003F
:10058000000000009405000000000020600400004E
:04059000EC02000079
:040000050000026D88
:00000001FF
