:020000040000FA
:10000000700400206D020000710200007302000005
:100010007502000077020000790200000000000075
:100020000000000000000000000000007B02000053
:100030007D020000000000007F020000A906000011
:1000400083020000830200008302000041040000DC
:10005000830200008302000083020000830200008C
:10006000830200008302000083020000830200007C
:10007000830200008302000083020000830200006C
:10008000830200008302000083020000830200005C
:10009000830200008302000083020000830200004C
:1000A000830200008302000083020000830200003C
:1000B000830200008302000083020000830200002C
:1000C000830200008302000083020000830200001C
:1000D000830200008302000083020000830200000C
:1000E00083020000830200008302000083020000FC
:1000F00083020000830200008302000083020000EC
:1001000083020000830200008302000083020000DB
:1001100083020000830200008302000083020000CB
:1001200083020000830200008302000083020000BB
:1001300083020000830200008302000083020000AB
:1001400000000000000000000000000000000000AF
:10015000830200008302000083020000830200008B
:10016000000000000000000000000000000000008F
:10017000000000000000000000000000000000007F
:10018000000000000000000000000000000000006F
:10019000000000000000000000000000000000005F
:1001A000000000000000000000000000000000004F
:1001B000830200008302000083020000830200002B
:1001C000830200008302000083020000830200001B
:1001D000830200008302000083020000830200000B
:1001E00083020000830200008302000083020000FB
:1001F00083020000830200008302000083020000EB
:10020000830200008302000083020000000000005F
:1002100083020000830200008302000083020000CA
:1002200083020000830200008302000083020000BA
:1002300083020000830200008302000083020000AA
:10024000830200008302000083020000830200009A
:10025000830200008302000083020000830200008A
:1002600083020000830200008302000000F00AB84D
:10027000FEE7FEE7FEE7FEE7FEE7FEE7FEE7FEE756
:10028000FEE7FEE700F002F800F042F814A696E858
:10029000000CB244B344DA4501D100F039F8BAE8B1
:1002A0000F000FA696E83000A5EB040504EB060747
:1002B000AAEB0704A7F101074FEA15154FEA34141A
:1002C000A4F10104AC4201D300F022F813F0010FB5
:1002D00018BFFB1A43F0010300F001F8DBE71847F1
:1002E00000050000100500007047000000230024F6
:1002F00000250026103A28BF78C1FBD8520728BF36
:1003000030C148BF0B6070471FB51FBD10B510BD91
:1003100000F029F81146FFF7F7FF00F019FA00F096
:1003200047F803B4FFF7F2FF03BC00F04FF80000FA
:1003300072B6704762B67047EFF3108072B67047BE
:1003400080F31088704730BF704702480249014A65
:10035000024B7047700000207004002070000020E5
:10036000704770477047754600F02CF8AE460500A0
:100370006946534620F00700854618B020B5FFF7C0
:10038000E4FFBDE820404FF000064FF000074FF0BB
:1003900000084FF0000BAC46ACE8C009ACE8C0095F
:1003A000ACE8C009ACE8C00921F007018D467047F0
:1003B00010B50446AFF300802046BDE81040FFF7BB
:1003C000B0BF00000048704700000020014918201D
:1003D000ABBEFEE7260002007047000081B000902F
:1003E000009940F26000C2F20000016002684EF223
:1003F0000021C0F20401891A40F26402C2F2000234
:10040000116044F21002C4F20002116841F00401CC
:10041000116000684EF21401CEF2000108604EF245
:100420001801CEF20001002008604EF21001CEF259
:100430000001086840F00100086001B0704700004A
:1004400081B000200090FFE7009847F2FF01C0F262
:100450000201884205D8FFE7FFE7009801300090CD
:10046000F2E747F21440C4F200000068400600289A
:1004700030D5FFE747F20010C4F2000000684006E4
:1004800000280DD5FFE745F22801C4F20201022041
:10049000086040F26801C2F20001002008700CE020
:1004A00045F22801C4F202010820086040F2680108
:1004B000C2F2000101200870FFE740F26901C2F2B8
:1004C00000010120087047F21C41C4F200014020E5
:1004D0000860FFE701B070474EF20811C4F20F0147
:1004E000086840F020000860FFE74EF20810C4F2F0
:1004F0000F00006800F02000202801D0FFE7F4E79B
:1005000045F20041C4F20201086840F00A000860A8
:1005100045F22851C4F20201086820F00A00086080
:1005200045F22C51C4F2020108684FF2F0029043E8
:10053000086045F22041C4F20201086820F00A0078
:10054000086045F21C51C4F20201086840F00A003C
:10055000086070474EF20811C4F20F01086840F0BD
:1005600008000860FFE74EF20810C4F20F000068B0
:1005700000F00800082801D0FFE7F4E747F2004147
:10058000C4F20001086820F04000086047F22851DA
:10059000C4F20001086820F04000086047F22C51C6
:1005A000C4F20001086820F07060086047F2204142
:1005B000C4F20001086820F04000086047F21C51B6
:1005C000C4F20001086840F04000086047F20441AE
:1005D000C4F20001086820F04000086047F20841BA
:1005E000C4F20001086840F04000086047F21C4176
:1005F000C4F20001086840F04000086047F2104172
:10060000C4F20001086840F0400008604EF200416A
:10061000CEF200010868602262F31F6008604EF2AB
:100620000011CEF20001086840F008000860704731
:100630004EF20811C4F20F01086840F00100086092
:10064000FFE74EF20810C4F20F000068C00708B9B7
:10065000FFE7F6E744F20041C4F20001086840F009
:100660000400086044F22851C4F20001086820F038
:100670000400086044F22C51C4F20001086820F420
:100680007060086044F22041C4F20001086820F064
:100690000400086044F21C51C4F20001086840F0F4
:1006A00004000860704700004EF21001CEF2000115
:1006B000086820F00100086044F21000C4F2000055
:1006C000006860B1FFE740F26400C2F20000006819
:1006D00001384EF21401CEF2000108600BE040F246
:1006E0006000C2F20000006801384EF21401CEF240
:1006F00000010860FFE744F21001C4F2000108683D
:1007000080F0040008604EF21801CEF200010020D3
:1007100008604EF21001CEF20001086840F00100BE
:10072000086070474EF21001CEF20001086820F018
:10073000010008604EF62052CEF2000210684023FD
:1007400063F31F601060086840F00600086070479F
:1007500080B582B000200190FFF7EAFDFFF7FAFEB6
:10076000FFF7E0FFFFF764FFFFF7B6FEFFF7E2FDDC
:1007700045F22801C4F202010220086049F6404017
:10078000FFF72CFEFFE7FFF7DEFD40F26900C2F243
:1007900000000078C007D8B1FFE740F26800C2F25D
:1007A0000000007828B9FFE749F64040FFF716FE41
:1007B0000DE040F26800C2F200000078012805D187
:1007C000FFE74FF47A50FFF709FEFFE7FFE7FFE787
:1007D00040F26901C2F2000100200870D3E7000076
:1007E000F00700000000002070040000EC02000090
:040000050000026D88
:00000001FF
